{
    "_format": "hh-sol-artifact-1",
    "contractName": "Notes",
    "sourceName": "contracts/Notes.sol",
    "abi": [
        {
            "anonymous": false,
            "inputs": [
                {
                    "indexed": true,
                    "internalType": "uint256",
                    "name": "id",
                    "type": "uint256"
                },
                {
                    "indexed": true,
                    "internalType": "address",
                    "name": "owner",
                    "type": "address"
                }
            ],
            "name": "NoteCreated",
            "type": "event"
        },
        {
            "anonymous": false,
            "inputs": [
                {
                    "indexed": true,
                    "internalType": "uint256",
                    "name": "id",
                    "type": "uint256"
                }
            ],
            "name": "NoteDeleted",
            "type": "event"
        },
        {
            "anonymous": false,
            "inputs": [
                {
                    "indexed": true,
                    "internalType": "uint256",
                    "name": "id",
                    "type": "uint256"
                }
            ],
            "name": "NoteUpdated",
            "type": "event"
        },
        {
            "inputs": [
                {
                    "internalType": "bytes",
                    "name": "_content",
                    "type": "bytes"
                }
            ],
            "name": "createNote",
            "outputs": [],
            "stateMutability": "nonpayable",
            "type": "function"
        },
        {
            "inputs": [
                {
                    "internalType": "uint256",
                    "name": "_id",
                    "type": "uint256"
                }
            ],
            "name": "deleteNote",
            "outputs": [],
            "stateMutability": "nonpayable",
            "type": "function"
        },
        {
            "inputs": [],
            "name": "getMyNotes",
            "outputs": [
                {
                    "internalType": "uint256[]",
                    "name": "",
                    "type": "uint256[]"
                }
            ],
            "stateMutability": "view",
            "type": "function"
        },
        {
            "inputs": [
                {
                    "internalType": "uint256",
                    "name": "_id",
                    "type": "uint256"
                }
            ],
            "name": "getNote",
            "outputs": [
                {
                    "internalType": "bytes",
                    "name": "",
                    "type": "bytes"
                }
            ],
            "stateMutability": "view",
            "type": "function"
        },
        {
            "inputs": [
                {
                    "internalType": "uint256",
                    "name": "_id",
                    "type": "uint256"
                },
                {
                    "internalType": "bytes",
                    "name": "_content",
                    "type": "bytes"
                }
            ],
            "name": "updateNote",
            "outputs": [],
            "stateMutability": "nonpayable",
            "type": "function"
        }
    ],
    "bytecode": "0x608060405234801561001057600080fd5b506111eb806100206000396000f3fe608060405234801561001057600080fd5b50600436106100575760003560e01c80633a6a8e061461005c57806386f17bb714610078578063a965a94114610096578063b90382cf146100c6578063c47177f4146100e2575b600080fd5b61007660048036038101906100719190610abf565b6100fe565b005b610080610210565b60405161008d9190610bd0565b60405180910390f35b6100b060048036038101906100ab9190610c1e565b6103ae565b6040516100bd9190610cca565b60405180910390f35b6100e060048036038101906100db9190610cec565b61059e565b005b6100fc60048036038101906100f79190610c1e565b61073b565b005b604051806060016040528060015481526020013373ffffffffffffffffffffffffffffffffffffffff1681526020018281525060008060015481526020019081526020016000206000820151816000015560208201518160010160006101000a81548173ffffffffffffffffffffffffffffffffffffffff021916908373ffffffffffffffffffffffffffffffffffffffff16021790555060408201518160020190816101ab9190610f54565b509050503373ffffffffffffffffffffffffffffffffffffffff166001547f1d39a71a40c14bee233655b3e373b6dfe3d42c9cf199fb03578b4aee93d5cbc160405160405180910390a36001600081548092919061020890611055565b919050555050565b60606000805b6001548110156102a4573373ffffffffffffffffffffffffffffffffffffffff1660008083815260200190815260200160002060010160009054906101000a900473ffffffffffffffffffffffffffffffffffffffff1673ffffffffffffffffffffffffffffffffffffffff160361029757818061029390611055565b9250505b8080600101915050610216565b5060008167ffffffffffffffff8111156102c1576102c0610994565b5b6040519080825280602002602001820160405280156102ef5781602001602082028036833780820191505090505b5090506000805b6001548110156103a4573373ffffffffffffffffffffffffffffffffffffffff1660008083815260200190815260200160002060010160009054906101000a900473ffffffffffffffffffffffffffffffffffffffff1673ffffffffffffffffffffffffffffffffffffffff1603610397578083838151811061037c5761037b61109d565b5b602002602001018181525050818061039390611055565b9250505b80806001019150506102f6565b5081935050505090565b6060813373ffffffffffffffffffffffffffffffffffffffff1660008083815260200190815260200160002060010160009054906101000a900473ffffffffffffffffffffffffffffffffffffffff1673ffffffffffffffffffffffffffffffffffffffff1614610454576040517f08c379a000000000000000000000000000000000000000000000000000000000815260040161044b90611129565b60405180910390fd5b600073ffffffffffffffffffffffffffffffffffffffff1660008083815260200190815260200160002060010160009054906101000a900473ffffffffffffffffffffffffffffffffffffffff1673ffffffffffffffffffffffffffffffffffffffff16036104f8576040517f08c379a00000000000000000000000000000000000000000000000000000000081526004016104ef90611195565b60405180910390fd5b600080848152602001908152602001600020600201805461051890610d77565b80601f016020809104026020016040519081016040528092919081815260200182805461054490610d77565b80156105915780601f1061056657610100808354040283529160200191610591565b820191906000526020600020905b81548152906001019060200180831161057457829003601f168201915b5050505050915050919050565b813373ffffffffffffffffffffffffffffffffffffffff1660008083815260200190815260200160002060010160009054906101000a900473ffffffffffffffffffffffffffffffffffffffff1673ffffffffffffffffffffffffffffffffffffffff1614610642576040517f08c379a000000000000000000000000000000000000000000000000000000000815260040161063990611129565b60405180910390fd5b600073ffffffffffffffffffffffffffffffffffffffff1660008083815260200190815260200160002060010160009054906101000a900473ffffffffffffffffffffffffffffffffffffffff1673ffffffffffffffffffffffffffffffffffffffff16036106e6576040517f08c379a00000000000000000000000000000000000000000000000000000000081526004016106dd90611195565b60405180910390fd5b8160008085815260200190815260200160002060020190816107089190610f54565b50827f607d768ccfa87285a4d88fafc2a82975061f85e66160001d6b44e966718a88dd60405160405180910390a2505050565b803373ffffffffffffffffffffffffffffffffffffffff1660008083815260200190815260200160002060010160009054906101000a900473ffffffffffffffffffffffffffffffffffffffff1673ffffffffffffffffffffffffffffffffffffffff16146107df576040517f08c379a00000000000000000000000000000000000000000000000000000000081526004016107d690611129565b60405180910390fd5b600073ffffffffffffffffffffffffffffffffffffffff1660008083815260200190815260200160002060010160009054906101000a900473ffffffffffffffffffffffffffffffffffffffff1673ffffffffffffffffffffffffffffffffffffffff1603610883576040517f08c379a000000000000000000000000000000000000000000000000000000000815260040161087a90611195565b60405180910390fd5b6000808381526020019081526020016000206000808201600090556001820160006101000a81549073ffffffffffffffffffffffffffffffffffffffff02191690556002820160006108d59190610908565b5050817f89af6ba62ab348dc535a3187c267090f834c868a3820cd552a7110c3dc3eedb860405160405180910390a25050565b50805461091490610d77565b6000825580601f106109265750610945565b601f0160209004906000526020600020908101906109449190610948565b5b50565b5b80821115610961576000816000905550600101610949565b5090565b6000604051905090565b600080fd5b600080fd5b600080fd5b600080fd5b6000601f19601f8301169050919050565b7f4e487b7100000000000000000000000000000000000000000000000000000000600052604160045260246000fd5b6109cc82610983565b810181811067ffffffffffffffff821117156109eb576109ea610994565b5b80604052505050565b60006109fe610965565b9050610a0a82826109c3565b919050565b600067ffffffffffffffff821115610a2a57610a29610994565b5b610a3382610983565b9050602081019050919050565b82818337600083830152505050565b6000610a62610a5d84610a0f565b6109f4565b905082815260208101848484011115610a7e57610a7d61097e565b5b610a89848285610a40565b509392505050565b600082601f830112610aa657610aa5610979565b5b8135610ab6848260208601610a4f565b91505092915050565b600060208284031215610ad557610ad461096f565b5b600082013567ffffffffffffffff811115610af357610af2610974565b5b610aff84828501610a91565b91505092915050565b600081519050919050565b600082825260208201905092915050565b6000819050602082019050919050565b6000819050919050565b610b4781610b34565b82525050565b6000610b598383610b3e565b60208301905092915050565b6000602082019050919050565b6000610b7d82610b08565b610b878185610b13565b9350610b9283610b24565b8060005b83811015610bc3578151610baa8882610b4d565b9750610bb583610b65565b925050600181019050610b96565b5085935050505092915050565b60006020820190508181036000830152610bea8184610b72565b905092915050565b610bfb81610b34565b8114610c0657600080fd5b50565b600081359050610c1881610bf2565b92915050565b600060208284031215610c3457610c3361096f565b5b6000610c4284828501610c09565b91505092915050565b600081519050919050565b600082825260208201905092915050565b60005b83811015610c85578082015181840152602081019050610c6a565b60008484015250505050565b6000610c9c82610c4b565b610ca68185610c56565b9350610cb6818560208601610c67565b610cbf81610983565b840191505092915050565b60006020820190508181036000830152610ce48184610c91565b905092915050565b60008060408385031215610d0357610d0261096f565b5b6000610d1185828601610c09565b925050602083013567ffffffffffffffff811115610d3257610d31610974565b5b610d3e85828601610a91565b9150509250929050565b7f4e487b7100000000000000000000000000000000000000000000000000000000600052602260045260246000fd5b60006002820490506001821680610d8f57607f821691505b602082108103610da257610da1610d48565b5b50919050565b60008190508160005260206000209050919050565b60006020601f8301049050919050565b600082821b905092915050565b600060088302610e0a7fffffffffffffffffffffffffffffffffffffffffffffffffffffffffffffffff82610dcd565b610e148683610dcd565b95508019841693508086168417925050509392505050565b6000819050919050565b6000610e51610e4c610e4784610b34565b610e2c565b610b34565b9050919050565b6000819050919050565b610e6b83610e36565b610e7f610e7782610e58565b848454610dda565b825550505050565b600090565b610e94610e87565b610e9f818484610e62565b505050565b5b81811015610ec357610eb8600082610e8c565b600181019050610ea5565b5050565b601f821115610f0857610ed981610da8565b610ee284610dbd565b81016020851015610ef1578190505b610f05610efd85610dbd565b830182610ea4565b50505b505050565b600082821c905092915050565b6000610f2b60001984600802610f0d565b1980831691505092915050565b6000610f448383610f1a565b9150826002028217905092915050565b610f5d82610c4b565b67ffffffffffffffff811115610f7657610f75610994565b5b610f808254610d77565b610f8b828285610ec7565b600060209050601f831160018114610fbe5760008415610fac578287015190505b610fb68582610f38565b86555061101e565b601f198416610fcc86610da8565b60005b82811015610ff457848901518255600182019150602085019450602081019050610fcf565b86831015611011578489015161100d601f891682610f1a565b8355505b6001600288020188555050505b505050505050565b7f4e487b7100000000000000000000000000000000000000000000000000000000600052601160045260246000fd5b600061106082610b34565b91507fffffffffffffffffffffffffffffffffffffffffffffffffffffffffffffffff820361109257611091611026565b5b600182019050919050565b7f4e487b7100000000000000000000000000000000000000000000000000000000600052603260045260246000fd5b600082825260208201905092915050565b7f4e6f7420746865206e6f7465206f776e65720000000000000000000000000000600082015250565b60006111136012836110cc565b915061111e826110dd565b602082019050919050565b6000602082019050818103600083015261114281611106565b9050919050565b7f4e6f746520646f6573206e6f7420657869737400000000000000000000000000600082015250565b600061117f6013836110cc565b915061118a82611149565b602082019050919050565b600060208201905081810360008301526111ae81611172565b905091905056fea2646970667358221220eca19df187f49b73b5eff0726caeb0cff5fb9777b26fceb5bf9c6055641c7ea564736f6c63430008180033",
    "linkReferences": {},
    "deployedLinkReferences": {}
}