{
  "_format": "hh-sol-artifact-1",
  "contractName": "Notes",
  "sourceName": "contracts/Notes.sol",
  "abi": [
    {
      "anonymous": false,
      "inputs": [
        {
          "indexed": true,
          "internalType": "uint256",
          "name": "id",
          "type": "uint256"
        },
        {
          "indexed": true,
          "internalType": "address",
          "name": "owner",
          "type": "address"
        }
      ],
      "name": "NoteCreated",
      "type": "event"
    },
    {
      "anonymous": false,
      "inputs": [
        {
          "indexed": true,
          "internalType": "uint256",
          "name": "id",
          "type": "uint256"
        }
      ],
      "name": "NoteDeleted",
      "type": "event"
    },
    {
      "anonymous": false,
      "inputs": [
        {
          "indexed": true,
          "internalType": "uint256",
          "name": "id",
          "type": "uint256"
        }
      ],
      "name": "NoteUpdated",
      "type": "event"
    },
    {
      "inputs": [
        {
          "internalType": "bytes",
          "name": "_content",
          "type": "bytes"
        }
      ],
      "name": "createNote",
      "outputs": [],
      "stateMutability": "nonpayable",
      "type": "function"
    },
    {
      "inputs": [
        {
          "internalType": "uint256",
          "name": "_id",
          "type": "uint256"
        }
      ],
      "name": "deleteNote",
      "outputs": [],
      "stateMutability": "nonpayable",
      "type": "function"
    },
    {
      "inputs": [],
      "name": "getMyNotes",
      "outputs": [
        {
          "internalType": "uint256[]",
          "name": "",
          "type": "uint256[]"
        }
      ],
      "stateMutability": "view",
      "type": "function"
    },
    {
      "inputs": [
        {
          "internalType": "uint256",
          "name": "_id",
          "type": "uint256"
        }
      ],
      "name": "getNote",
      "outputs": [
        {
          "internalType": "bytes",
          "name": "",
          "type": "bytes"
        }
      ],
      "stateMutability": "view",
      "type": "function"
    },
    {
      "inputs": [
        {
          "internalType": "uint256",
          "name": "_id",
          "type": "uint256"
        },
        {
          "internalType": "bytes",
          "name": "_content",
          "type": "bytes"
        }
      ],
      "name": "updateNote",
      "outputs": [],
      "stateMutability": "nonpayable",
      "type": "function"
    }
  ],
  "bytecode": "0x608060405234801561001057600080fd5b506112c3806100206000396000f3fe608060405234801561001057600080fd5b50600436106100575760003560e01c80633a6a8e061461005c57806386f17bb714610078578063a965a94114610096578063b90382cf146100c6578063c47177f4146100e2575b600080fd5b61007660048036038101906100719190610b34565b6100fe565b005b610080610276565b60405161008d9190610c45565b60405180910390f35b6100b060048036038101906100ab9190610c93565b61030b565b6040516100bd9190610d3f565b60405180910390f35b6100e060048036038101906100db9190610d61565b6104fb565b005b6100fc60048036038101906100f79190610c93565b610698565b005b604051806060016040528060025481526020013373ffffffffffffffffffffffffffffffffffffffff1681526020018281525060008060025481526020019081526020016000206000820151816000015560208201518160010160006101000a81548173ffffffffffffffffffffffffffffffffffffffff021916908373ffffffffffffffffffffffffffffffffffffffff16021790555060408201518160020190816101ab9190610fc9565b50905050600160003373ffffffffffffffffffffffffffffffffffffffff1673ffffffffffffffffffffffffffffffffffffffff16815260200190815260200160002060025490806001815401808255809150506001900390600052602060002001600090919091909150553373ffffffffffffffffffffffffffffffffffffffff166002547f1d39a71a40c14bee233655b3e373b6dfe3d42c9cf199fb03578b4aee93d5cbc160405160405180910390a360026000815461026c906110ca565b9190508190555050565b6060600160003373ffffffffffffffffffffffffffffffffffffffff1673ffffffffffffffffffffffffffffffffffffffff16815260200190815260200160002080548060200260200160405190810160405280929190818152602001828054801561030157602002820191906000526020600020905b8154815260200190600101908083116102ed575b5050505050905090565b606081600073ffffffffffffffffffffffffffffffffffffffff1660008083815260200190815260200160002060010160009054906101000a900473ffffffffffffffffffffffffffffffffffffffff1673ffffffffffffffffffffffffffffffffffffffff16036103b2576040517f08c379a00000000000000000000000000000000000000000000000000000000081526004016103a99061116f565b60405180910390fd5b3373ffffffffffffffffffffffffffffffffffffffff1660008083815260200190815260200160002060010160009054906101000a900473ffffffffffffffffffffffffffffffffffffffff1673ffffffffffffffffffffffffffffffffffffffff1614610455576040517f08c379a000000000000000000000000000000000000000000000000000000000815260040161044c906111db565b60405180910390fd5b600080848152602001908152602001600020600201805461047590610dec565b80601f01602080910402602001604051908101604052809291908181526020018280546104a190610dec565b80156104ee5780601f106104c3576101008083540402835291602001916104ee565b820191906000526020600020905b8154815290600101906020018083116104d157829003601f168201915b5050505050915050919050565b81600073ffffffffffffffffffffffffffffffffffffffff1660008083815260200190815260200160002060010160009054906101000a900473ffffffffffffffffffffffffffffffffffffffff1673ffffffffffffffffffffffffffffffffffffffff16036105a0576040517f08c379a00000000000000000000000000000000000000000000000000000000081526004016105979061116f565b60405180910390fd5b3373ffffffffffffffffffffffffffffffffffffffff1660008083815260200190815260200160002060010160009054906101000a900473ffffffffffffffffffffffffffffffffffffffff1673ffffffffffffffffffffffffffffffffffffffff1614610643576040517f08c379a000000000000000000000000000000000000000000000000000000000815260040161063a906111db565b60405180910390fd5b8160008085815260200190815260200160002060020190816106659190610fc9565b50827f607d768ccfa87285a4d88fafc2a82975061f85e66160001d6b44e966718a88dd60405160405180910390a2505050565b80600073ffffffffffffffffffffffffffffffffffffffff1660008083815260200190815260200160002060010160009054906101000a900473ffffffffffffffffffffffffffffffffffffffff1673ffffffffffffffffffffffffffffffffffffffff160361073d576040517f08c379a00000000000000000000000000000000000000000000000000000000081526004016107349061116f565b60405180910390fd5b3373ffffffffffffffffffffffffffffffffffffffff1660008083815260200190815260200160002060010160009054906101000a900473ffffffffffffffffffffffffffffffffffffffff1673ffffffffffffffffffffffffffffffffffffffff16146107e0576040517f08c379a00000000000000000000000000000000000000000000000000000000081526004016107d7906111db565b60405180910390fd5b6000808381526020019081526020016000206000808201600090556001820160006101000a81549073ffffffffffffffffffffffffffffffffffffffff0219169055600282016000610832919061097d565b50506000600160003373ffffffffffffffffffffffffffffffffffffffff1673ffffffffffffffffffffffffffffffffffffffff168152602001908152602001600020905060005b818054905081101561094a578382828154811061089a576108996111fb565b5b90600052602060002001540361093d57600182805490506108bb919061122a565b81146109115781600183805490506108d3919061122a565b815481106108e4576108e36111fb565b5b9060005260206000200154828281548110610902576109016111fb565b5b90600052602060002001819055505b818054806109225761092161125e565b5b6001900381819060005260206000200160009055905561094a565b808060010191505061087a565b50827f89af6ba62ab348dc535a3187c267090f834c868a3820cd552a7110c3dc3eedb860405160405180910390a2505050565b50805461098990610dec565b6000825580601f1061099b57506109ba565b601f0160209004906000526020600020908101906109b991906109bd565b5b50565b5b808211156109d65760008160009055506001016109be565b5090565b6000604051905090565b600080fd5b600080fd5b600080fd5b600080fd5b6000601f19601f8301169050919050565b7f4e487b7100000000000000000000000000000000000000000000000000000000600052604160045260246000fd5b610a41826109f8565b810181811067ffffffffffffffff82111715610a6057610a5f610a09565b5b80604052505050565b6000610a736109da565b9050610a7f8282610a38565b919050565b600067ffffffffffffffff821115610a9f57610a9e610a09565b5b610aa8826109f8565b9050602081019050919050565b82818337600083830152505050565b6000610ad7610ad284610a84565b610a69565b905082815260208101848484011115610af357610af26109f3565b5b610afe848285610ab5565b509392505050565b600082601f830112610b1b57610b1a6109ee565b5b8135610b2b848260208601610ac4565b91505092915050565b600060208284031215610b4a57610b496109e4565b5b600082013567ffffffffffffffff811115610b6857610b676109e9565b5b610b7484828501610b06565b91505092915050565b600081519050919050565b600082825260208201905092915050565b6000819050602082019050919050565b6000819050919050565b610bbc81610ba9565b82525050565b6000610bce8383610bb3565b60208301905092915050565b6000602082019050919050565b6000610bf282610b7d565b610bfc8185610b88565b9350610c0783610b99565b8060005b83811015610c38578151610c1f8882610bc2565b9750610c2a83610bda565b925050600181019050610c0b565b5085935050505092915050565b60006020820190508181036000830152610c5f8184610be7565b905092915050565b610c7081610ba9565b8114610c7b57600080fd5b50565b600081359050610c8d81610c67565b92915050565b600060208284031215610ca957610ca86109e4565b5b6000610cb784828501610c7e565b91505092915050565b600081519050919050565b600082825260208201905092915050565b60005b83811015610cfa578082015181840152602081019050610cdf565b60008484015250505050565b6000610d1182610cc0565b610d1b8185610ccb565b9350610d2b818560208601610cdc565b610d34816109f8565b840191505092915050565b60006020820190508181036000830152610d598184610d06565b905092915050565b60008060408385031215610d7857610d776109e4565b5b6000610d8685828601610c7e565b925050602083013567ffffffffffffffff811115610da757610da66109e9565b5b610db385828601610b06565b9150509250929050565b7f4e487b7100000000000000000000000000000000000000000000000000000000600052602260045260246000fd5b60006002820490506001821680610e0457607f821691505b602082108103610e1757610e16610dbd565b5b50919050565b60008190508160005260206000209050919050565b60006020601f8301049050919050565b600082821b905092915050565b600060088302610e7f7fffffffffffffffffffffffffffffffffffffffffffffffffffffffffffffffff82610e42565b610e898683610e42565b95508019841693508086168417925050509392505050565b6000819050919050565b6000610ec6610ec1610ebc84610ba9565b610ea1565b610ba9565b9050919050565b6000819050919050565b610ee083610eab565b610ef4610eec82610ecd565b848454610e4f565b825550505050565b600090565b610f09610efc565b610f14818484610ed7565b505050565b5b81811015610f3857610f2d600082610f01565b600181019050610f1a565b5050565b601f821115610f7d57610f4e81610e1d565b610f5784610e32565b81016020851015610f66578190505b610f7a610f7285610e32565b830182610f19565b50505b505050565b600082821c905092915050565b6000610fa060001984600802610f82565b1980831691505092915050565b6000610fb98383610f8f565b9150826002028217905092915050565b610fd282610cc0565b67ffffffffffffffff811115610feb57610fea610a09565b5b610ff58254610dec565b611000828285610f3c565b600060209050601f8311600181146110335760008415611021578287015190505b61102b8582610fad565b865550611093565b601f19841661104186610e1d565b60005b8281101561106957848901518255600182019150602085019450602081019050611044565b868310156110865784890151611082601f891682610f8f565b8355505b6001600288020188555050505b505050505050565b7f4e487b7100000000000000000000000000000000000000000000000000000000600052601160045260246000fd5b60006110d582610ba9565b91507fffffffffffffffffffffffffffffffffffffffffffffffffffffffffffffffff82036111075761110661109b565b5b600182019050919050565b600082825260208201905092915050565b7f4e6f746520646f6573206e6f7420657869737400000000000000000000000000600082015250565b6000611159601383611112565b915061116482611123565b602082019050919050565b600060208201905081810360008301526111888161114c565b9050919050565b7f4e6f7420746865206e6f7465206f776e65720000000000000000000000000000600082015250565b60006111c5601283611112565b91506111d08261118f565b602082019050919050565b600060208201905081810360008301526111f4816111b8565b9050919050565b7f4e487b7100000000000000000000000000000000000000000000000000000000600052603260045260246000fd5b600061123582610ba9565b915061124083610ba9565b92508282039050818111156112585761125761109b565b5b92915050565b7f4e487b7100000000000000000000000000000000000000000000000000000000600052603160045260246000fdfea2646970667358221220d59877e9a76c6c1ceaa901c869d3ce599c92de9756082b8c7491571a27865f0664736f6c63430008180033",
  "linkReferences": {},
  "deployedLinkReferences": {}
}